{
  "contractName": "Hodl",
  "abi": [
    {
      "constant": false,
      "inputs": [
        {
          "name": "fromNow",
          "type": "uint256"
        },
        {
          "name": "_amount",
          "type": "uint256"
        }
      ],
      "name": "deposit",
      "outputs": [],
      "payable": true,
      "stateMutability": "payable",
      "type": "function"
    },
    {
      "constant": false,
      "inputs": [],
      "name": "withdraw",
      "outputs": [],
      "payable": false,
      "stateMutability": "nonpayable",
      "type": "function"
    },
    {
      "constant": true,
      "inputs": [
        {
          "name": "_user",
          "type": "address"
        }
      ],
      "name": "getUser",
      "outputs": [
        {
          "name": "",
          "type": "uint256"
        },
        {
          "name": "",
          "type": "uint256"
        },
        {
          "name": "",
          "type": "bool"
        }
      ],
      "payable": false,
      "stateMutability": "view",
      "type": "function"
    }
  ],
  "bytecode": "0x608060405234801561001057600080fd5b506104df806100206000396000f3fe6080604052600436106100345760003560e01c80633ccfd60b146100395780636f77926b14610050578063e2bbb158146100c7575b600080fd5b34801561004557600080fd5b5061004e6100ff565b005b34801561005c57600080fd5b5061009f6004803603602081101561007357600080fd5b81019080803573ffffffffffffffffffffffffffffffffffffffff169060200190929190505050610277565b6040518084815260200183815260200182151515158152602001935050505060405180910390f35b6100fd600480360360408110156100dd57600080fd5b81019080803590602001909291908035906020019092919050505061035c565b005b60008060003373ffffffffffffffffffffffffffffffffffffffff1673ffffffffffffffffffffffffffffffffffffffff1681526020019081526020016000209050600115158160020160009054906101000a900460ff161515146101af576040517f08c379a000000000000000000000000000000000000000000000000000000000815260040180806020018281038252602a81526020018061042d602a913960400191505060405180910390fd5b806000015442101561020c576040517f08c379a000000000000000000000000000000000000000000000000000000000815260040180806020018281038252602681526020018061048e6026913960400191505060405180910390fd5b60008160020160006101000a81548160ff0219169083151502179055503373ffffffffffffffffffffffffffffffffffffffff166108fc82600101549081150290604051600060405180830381858888f19350505050158015610273573d6000803e3d6000fd5b5050565b60008060008060008573ffffffffffffffffffffffffffffffffffffffff1673ffffffffffffffffffffffffffffffffffffffff168152602001908152602001600020600001546000808673ffffffffffffffffffffffffffffffffffffffff1673ffffffffffffffffffffffffffffffffffffffff168152602001908152602001600020600101546000808773ffffffffffffffffffffffffffffffffffffffff1673ffffffffffffffffffffffffffffffffffffffff16815260200190815260200160002060020160009054906101000a900460ff169250925092509193909250565b8034146103b4576040517f08c379a00000000000000000000000000000000000000000000000000000000081526004018080602001828103825260378152602001806104576037913960400191505060405180910390fd5b60008060003373ffffffffffffffffffffffffffffffffffffffff1673ffffffffffffffffffffffffffffffffffffffff1681526020019081526020016000209050824201816000018190555081816001018190555060018160020160006101000a81548160ff02191690831515021790555050505056fe596f75206d757374206265206120686f646c657220746f206d616b652061207769746864726177616c2e596f75206d7573742073656e642074686520636f727265637420616d6f756e74207769746820796f7572207472616e73616374696f6e2e596f752063616e6e6f742079657420776974686472617720796f757220686f6c64696e67732ea165627a7a72305820c2038a3b8ec29b1fdbb49c95ba101d3a98ea33cc8c2a2c16474e5df10a6461d00029",
  "source": "pragma solidity ^0.5.0;\r\n\r\ncontract Hodl {\r\n  struct User {\r\n    uint earliest;\r\n    uint amount;\r\n    bool hodler;\r\n  }\r\n  \r\n  mapping(address => User) private users;\r\n\r\n  function deposit(uint fromNow, uint _amount) public payable {\r\n    require(msg.value == _amount, 'You must send the correct amount with your transaction.');\r\n    \r\n    User storage user = users[msg.sender];\r\n    \r\n    user.earliest = now + fromNow;\r\n    user.amount = _amount;\r\n    user.hodler = true;\r\n  }\r\n  \r\n  function withdraw() public {\r\n    User storage user = users[msg.sender];\r\n    \r\n    require(user.hodler == true, \"You must be a hodler to make a withdrawal.\");\r\n    require(now >= user.earliest, \"You cannot yet withdraw your holdings.\");\r\n    \r\n    user.hodler = false;\r\n    msg.sender.transfer(user.amount);\r\n  }\r\n  \r\n  function getUser(address _user) public view returns(uint, uint, bool) {\r\n    return(users[_user].earliest, users[_user].amount, users[_user].hodler);\r\n  }\r\n}",
  "sourcePath": "C:/Users/kaden/Documents/code/hodl/contracts/Hodl.sol",
  "compiler": {
    "name": "solc",
    "version": "0.5.8+commit.23d335f2.Emscripten.clang"
  },
  "schemaVersion": "3.0.16",
  "updatedAt": "2019-10-02T18:06:32.954Z",
  "devdoc": {
    "methods": {}
  },
  "userdoc": {
    "methods": {}
  }
}