{
  "contractName": "Hodl",
  "abi": [
    {
      "constant": false,
      "inputs": [
        {
          "name": "fromNow",
          "type": "uint256"
        },
        {
          "name": "_amount",
          "type": "uint256"
        }
      ],
      "name": "deposit",
      "outputs": [],
      "payable": true,
      "stateMutability": "payable",
      "type": "function"
    },
    {
      "constant": false,
      "inputs": [],
      "name": "withdraw",
      "outputs": [],
      "payable": false,
      "stateMutability": "nonpayable",
      "type": "function"
    }
  ],
  "bytecode": "0x608060405234801561001057600080fd5b50610378806100206000396000f3fe6080604052600436106100295760003560e01c80633ccfd60b1461002e578063e2bbb15814610045575b600080fd5b34801561003a57600080fd5b5061004361007d565b005b61007b6004803603604081101561005b57600080fd5b8101908080359060200190929190803590602001909291905050506101f5565b005b60008060003373ffffffffffffffffffffffffffffffffffffffff1673ffffffffffffffffffffffffffffffffffffffff1681526020019081526020016000209050600115158160020160009054906101000a900460ff1615151461012d576040517f08c379a000000000000000000000000000000000000000000000000000000000815260040180806020018281038252602a8152602001806102c6602a913960400191505060405180910390fd5b806000015442101561018a576040517f08c379a00000000000000000000000000000000000000000000000000000000081526004018080602001828103825260268152602001806103276026913960400191505060405180910390fd5b60008160020160006101000a81548160ff0219169083151502179055503373ffffffffffffffffffffffffffffffffffffffff166108fc82600101549081150290604051600060405180830381858888f193505050501580156101f1573d6000803e3d6000fd5b5050565b80341461024d576040517f08c379a00000000000000000000000000000000000000000000000000000000081526004018080602001828103825260378152602001806102f06037913960400191505060405180910390fd5b60008060003373ffffffffffffffffffffffffffffffffffffffff1673ffffffffffffffffffffffffffffffffffffffff1681526020019081526020016000209050824201816000018190555081816001018190555060018160020160006101000a81548160ff02191690831515021790555050505056fe596f75206d757374206265206120686f646c657220746f206d616b652061207769746864726177616c2e596f75206d7573742073656e642074686520636f727265637420616d6f756e74207769746820796f7572207472616e73616374696f6e2e596f752063616e6e6f742079657420776974686472617720796f757220686f6c64696e67732ea165627a7a723058206fead2da1914bdabf8848a7a750c05f308c18187b2347ad72ca48680fa5e76710029",
  "source": "pragma solidity ^0.5.0;\r\n\r\ncontract Hodl {\r\n  struct User {\r\n    uint earliest;\r\n    uint amount;\r\n    bool hodler;\r\n  }\r\n  \r\n  mapping(address => User) private users;\r\n\r\n  function deposit(uint fromNow, uint _amount) public payable {\r\n    require(msg.value == _amount, 'You must send the correct amount with your transaction.');\r\n    \r\n    User storage user = users[msg.sender];\r\n    \r\n    user.earliest = now + fromNow;\r\n    user.amount = _amount;\r\n    user.hodler = true;\r\n  }\r\n  \r\n  function withdraw() public {\r\n    User storage user = users[msg.sender];\r\n    \r\n    require(user.hodler == true, \"You must be a hodler to make a withdrawal.\");\r\n    require(now >= user.earliest, \"You cannot yet withdraw your holdings.\");\r\n    \r\n    user.hodler = false;\r\n    msg.sender.transfer(user.amount);\r\n  }\r\n}",
  "sourcePath": "C:/Users/kaden/Documents/code/hodl/contracts/Hodl.sol",
  "compiler": {
    "name": "solc",
    "version": "0.5.8+commit.23d335f2.Emscripten.clang"
  },
  "schemaVersion": "3.0.16",
  "updatedAt": "2019-09-30T20:56:19.823Z",
  "devdoc": {
    "methods": {}
  },
  "userdoc": {
    "methods": {}
  }
}