{
  "contractName": "Hodl",
  "abi": [
    {
      "constant": false,
      "inputs": [
        {
          "name": "fromNow",
          "type": "uint256"
        },
        {
          "name": "_amount",
          "type": "uint256"
        }
      ],
      "name": "deposit",
      "outputs": [],
      "payable": true,
      "stateMutability": "payable",
      "type": "function"
    },
    {
      "constant": false,
      "inputs": [],
      "name": "withdraw",
      "outputs": [],
      "payable": false,
      "stateMutability": "nonpayable",
      "type": "function"
    },
    {
      "constant": true,
      "inputs": [
        {
          "name": "_user",
          "type": "address"
        }
      ],
      "name": "getUser",
      "outputs": [
        {
          "name": "",
          "type": "uint256"
        },
        {
          "name": "",
          "type": "uint256"
        },
        {
          "name": "",
          "type": "bool"
        }
      ],
      "payable": false,
      "stateMutability": "view",
      "type": "function"
    },
    {
      "constant": true,
      "inputs": [],
      "name": "getBalance",
      "outputs": [
        {
          "name": "",
          "type": "uint256"
        }
      ],
      "payable": false,
      "stateMutability": "view",
      "type": "function"
    }
  ],
  "bytecode": "0x608060405234801561001057600080fd5b506105d8806100206000396000f3fe60806040526004361061003f5760003560e01c806312065fe0146100445780633ccfd60b1461006f5780636f77926b14610086578063e2bbb158146100fd575b600080fd5b34801561005057600080fd5b50610059610135565b6040518082815260200191505060405180910390f35b34801561007b57600080fd5b50610084610154565b005b34801561009257600080fd5b506100d5600480360360208110156100a957600080fd5b81019080803573ffffffffffffffffffffffffffffffffffffffff1690602001909291905050506102dc565b6040518084815260200183815260200182151515158152602001935050505060405180910390f35b6101336004803603604081101561011357600080fd5b8101908080359060200190929190803590602001909291905050506103c1565b005b60003073ffffffffffffffffffffffffffffffffffffffff1631905090565b60008060003373ffffffffffffffffffffffffffffffffffffffff1673ffffffffffffffffffffffffffffffffffffffff1681526020019081526020016000209050600115158160020160009054906101000a900460ff16151514610204576040517f08c379a000000000000000000000000000000000000000000000000000000000815260040180806020018281038252602a815260200180610526602a913960400191505060405180910390fd5b8060000154421015610261576040517f08c379a00000000000000000000000000000000000000000000000000000000081526004018080602001828103825260268152602001806105876026913960400191505060405180910390fd5b60008160010154905060008260020160006101000a81548160ff021916908315150217905550600082600101819055503373ffffffffffffffffffffffffffffffffffffffff166108fc829081150290604051600060405180830381858888f193505050501580156102d7573d6000803e3d6000fd5b505050565b60008060008060008573ffffffffffffffffffffffffffffffffffffffff1673ffffffffffffffffffffffffffffffffffffffff168152602001908152602001600020600001546000808673ffffffffffffffffffffffffffffffffffffffff1673ffffffffffffffffffffffffffffffffffffffff168152602001908152602001600020600101546000808773ffffffffffffffffffffffffffffffffffffffff1673ffffffffffffffffffffffffffffffffffffffff16815260200190815260200160002060020160009054906101000a900460ff169250925092509193909250565b803414610419576040517f08c379a00000000000000000000000000000000000000000000000000000000081526004018080602001828103825260378152602001806105506037913960400191505060405180910390fd5b60008060003373ffffffffffffffffffffffffffffffffffffffff1673ffffffffffffffffffffffffffffffffffffffff1681526020019081526020016000209050600015158160020160009054906101000a900460ff161515146104c9576040517f08c379a00000000000000000000000000000000000000000000000000000000081526004018080602001828103825260238152602001806105036023913960400191505060405180910390fd5b600f83420101816000018190555081816001018190555060018160020160006101000a81548160ff02191690831515021790555050505056fe596f752063616e206f6e6c7920686f646c206f6e636520706572206163636f756e742e596f75206d757374206265206120686f646c657220746f206d616b652061207769746864726177616c2e596f75206d7573742073656e642074686520636f727265637420616d6f756e74207769746820796f7572207472616e73616374696f6e2e596f752063616e6e6f742079657420776974686472617720796f757220686f6c64696e67732ea165627a7a72305820abafcc419af6b09ad10a1dbdd1fa192cdee9f540811e365edf826de23fdd8aae0029",
  "source": "pragma solidity 0.5.8;\r\n\r\ncontract Hodl {\r\n  struct User {\r\n    uint earliest;\r\n    uint amount;\r\n    bool hodler;\r\n  }\r\n  \r\n  mapping(address => User) private users;\r\n\r\n  function deposit(uint fromNow, uint _amount) public payable {\r\n    require(msg.value == _amount, 'You must send the correct amount with your transaction.');\r\n    User storage user = users[msg.sender];\r\n    require(user.hodler == false, 'You can only hodl once per account.');\r\n    \r\n    // 15 second time padding is used to compensate for block.timestamp\r\n    user.earliest = now + fromNow + 15;\r\n    user.amount = _amount;\r\n    user.hodler = true;\r\n  }\r\n  \r\n  function withdraw() public {\r\n    User storage user = users[msg.sender];\r\n    \r\n    require(user.hodler == true, \"You must be a hodler to make a withdrawal.\");\r\n    require(now >= user.earliest, \"You cannot yet withdraw your holdings.\");\r\n    \r\n    uint amount = user.amount;\r\n    \r\n    user.hodler = false;\r\n    user.amount = 0;\r\n    msg.sender.transfer(amount);\r\n  }\r\n  \r\n  function getUser(address _user) view public returns(uint, uint, bool) {\r\n    return(users[_user].earliest, users[_user].amount, users[_user].hodler);\r\n  }\r\n  \r\n  function getBalance() view public returns(uint) {\r\n    return address(this).balance;\r\n  }\r\n}",
  "sourcePath": "C:/Users/kaden/Documents/code/hodl/contracts/Hodl.sol",
  "compiler": {
    "name": "solc",
    "version": "0.5.8+commit.23d335f2.Emscripten.clang"
  },
  "schemaVersion": "3.0.16",
  "updatedAt": "2019-10-22T21:24:37.057Z",
  "devdoc": {
    "methods": {}
  },
  "userdoc": {
    "methods": {}
  }
}